:020000040800F2
:1000000000C00020791D00083506000837060008EA
:10001000390600083B0600083D0600080000000005
:100020000000000000000000000000003F06000883
:1000300041060008000000004306000845060008CD
:10004000C91D0008C91D0008C91D0008C91D0008F8
:10005000C91D0008C91D0008C91D0008C91D0008E8
:10006000C91D0008C91D0008C91D0008C91D0008D8
:10007000C91D0008C91D0008C91D0008C91D0008C8
:10008000C91D0008C91D0008C91D0008C91D0008B8
:10009000C91D0008C91D0008C91D0008C91D0008A8
:1000A000C91D0008C91D0008C91D0008C91D000898
:1000B000C91D00080000000000000000C91D000864
:1000C000C91D00080000000000000000C91D000854
:1000D00000000000C91D0008C91D00080000000044
:1000E000C91D0008C91D0008000000000000000034
:1000F0000000000000000000000000000000000000
:10010000000000000000000000000000C91D000801
:100110000000000000000000C91D0008C91D000803
:10012000C91D0008C91D0008C91D0008C91D000817
:10013000C91D0008000000000000000000000000D1
:10014000C91D0008C91D0008C91D0008C91D0008F7
:10015000C91D0008C91D0008C91D0008C91D0008E7
:10016000C91D0008C91D0008C91D000800000000C5
:10017000C91D0008C91D00080000000000000000A3
:10018000C91D0008C91D0008C91D000800000000A5
:1001900010B5054C237833B9044B13B10448AFF3C1
:1001A00000800123237010BD10000020000000001B
:1001B000241E000808B5034B1BB103490348AFF3E5
:1001C000008008BD0000000014000020241E00086C
:1001D00053B94AB9002908BF00281CBF4FF0FF31AE
:1001E0004FF0FF3000F074B9ADF1080C6DE904CEAA
:1001F00000F006F8DDF804E0DDE9022304B0704702
:100200002DE9F047089D04468E46002B4DD18A42C9
:10021000944669D9B2FA82F252B101FA02F3C2F1FC
:10022000200120FA01F10CFA02FC41EA030E94408D
:100230004FEA1C48210CBEFBF8F61FFA8CF708FBAE
:1002400016E341EA034306FB07F199420AD91CEB86
:10025000030306F1FF3080F01F81994240F21C81B8
:10026000023E63445B1AA4B2B3FBF8F008FB103300
:1002700044EA034400FB07F7A7420AD91CEB040435
:1002800000F1FF3380F00A81A74240F20781644405
:10029000023840EA0640E41B00261DB1D44000238A
:1002A000C5E900433146BDE8F0878B4209D9002DEE
:1002B00000F0EF800026C5E9000130463146BDE878
:1002C000F087B3FA83F6002E4AD18B4202D38242E2
:1002D00000F2F980841A61EB030301209E46002D91
:1002E000E0D0C5E9004EDDE702B9FFDEB2FA82F2E6
:1002F000002A40F09280A1EB0C014FEA1C471FFA44
:100300008CFE0126200CB1FBF7F307FB131140EA2A
:1003100001410EFB03F0884208D91CEB010103F1F7
:10032000FF3802D2884200F2CB804346091AA4B2B9
:10033000B1FBF7F007FB101144EA01440EFB00FE8D
:10034000A64508D91CEB040400F1FF3102D2A645F2
:1003500000F2BB800846A4EB0E0440EA03409CE791
:10036000C6F12007B34022FA07FC4CEA030C20FA3E
:1003700007F401FA06F31C43F9404FEA1C4900FA5E
:1003800006F3B1FBF9F8200C1FFA8CFE09FB1811DB
:1003900040EA014108FB0EF0884202FA06F20BD94E
:1003A0001CEB010108F1FF3A80F08880884240F29E
:1003B0008580A8F102086144091AA4B2B1FBF9F0E2
:1003C00009FB101144EA014100FB0EFE8E4508D9DD
:1003D0001CEB010100F1FF346CD28E456AD9023862
:1003E000614440EA0840A0FB0294A1EB0E01A14247
:1003F000C846A64656D353D05DB1B3EB080261EBB5
:100400000E0101FA07F722FA06F3F1401F43C5E98E
:10041000007100263146BDE8F087C2F12003D840C4
:100420000CFA02FC21FA03F3914001434FEA1C4706
:100430001FFA8CFEB3FBF7F007FB10360B0C43EAF8
:10044000064300FB0EF69E4204FA02F408D91CEBA8
:10045000030300F1FF382FD29E422DD902386344A6
:100460009B1B89B2B3FBF7F607FB163341EA034146
:1004700006FB0EF38B4208D91CEB010106F1FF3895
:1004800016D28B4214D9023E6144C91A46EA00468C
:1004900038E72E46284605E70646E3E61846F8E61E
:1004A0004B45A9D2B9EB020864EB0C0E0138A3E767
:1004B0004646EAE7204694E74046D1E7D0467BE748
:1004C000023B614432E7304609E76444023842E7C0
:1004D000704700BF30B589B000240394049405949C
:1004E00006940794164BDA6C42F00402DA64DA6C74
:1004F00002F004020092009ADA6C42F00102DA641F
:10050000DA6C02F001020192019ADA6C42F0020206
:10051000DA64DB6C03F002030293029B094D22466E
:100520000821284601F04AFB082303930123049382
:100530000594069403A9284601F078FA09B030BD65
:10054000001002400004004872B6FEE708B50B48F0
:100550000B4B03604FF4E133436000238360C360BF
:1005600003610C2242618361C3610362436200F054
:10057000F6FA00B908BDFFF7E7FF00BF2C00002026
:100580000044004000B597B04422002105A801F0C6
:1005900041FC0023009301930293039304934FF4CF
:1005A000007001F021FB002831D101F00DFB1B4A46
:1005B000D2F8903023F01803C2F89030142305933A
:1005C000012307930B9300220C9260220D920222CA
:1005D0000F921093119310231293072313931492E5
:1005E000159205A800F0D8FB98B90F2300930323B8
:1005F000019300230293039304930121684600F0C2
:100600000BFF40B901F00AFA17B05DF804FBFFF7E1
:100610009BFFFFF799FFFFF797FF00BF0010024015
:1006200008B500F0F5FAFFF7ADFFFFF753FFFFF74E
:100630008DFFFEE7FEE7FEE7FEE7FEE7FEE7704719
:100640007047704708B500F0F3FA08BD82B00A4B56
:100650001A6E42F001021A661A6E02F0010200924E
:10066000009A9A6D42F080529A659B6D03F0805318
:100670000193019B02B070470010024070B59CB01E
:10068000044600211791189119911A911B91542237
:1006900002A801F0BFFB22681E4B9A4201D01CB099
:1006A00070BD0223029302A801F044F800282ED165
:1006B000194B9A6D42F400329A659A6D02F4003239
:1006C0000092009ADA6C42F00102DA64DB6C03F00B
:1006D00001030193019B042317930226189600251A
:1006E000199503241A9407231B9317A94FF09040E0
:1006F00001F09CF94FF400431793189619951A943A
:100700001B9417A94FF0904001F090F9C7E7FFF74D
:100710001BFFCDE7004400400010024010B5044626
:10072000016883680269134342691343C269134332
:1007300008688C4A024013430B602268536823F414
:100740004053E1680B435360A1692268864B9A428B
:1007500001D0236A1943936823F430630B439360F9
:100760002368824A93421CD0814A93422DD07E4A0C
:10077000934243D010227C498B4260D0E069B0F5AF
:10078000004F00F08C80082A00F2E580DFE812F0CC
:10079000B400CA00B200E300CD00E300E300E300D0
:1007A000D00002F55842D2F8882002F00302032A52
:1007B00009D8DFE802F0020438060122DBE7042250
:1007C000D9E70822D7E71022D5E702F5E632D2F8BA
:1007D000882002F00C020C2A0ED8DFE802F0070D88
:1007E0000D0D090D0D0D260D0D0D0B000022C2E79C
:1007F0000422C0E70822BEE71022BCE702F5C83297
:10080000D2F8882002F44062B2F5006F0FD005D80C
:100810007AB1B2F5806F0ED10422ACE7B2F5406F29
:100820000BD10822A7E70222A5E70222A3E70222B2
:10083000A1E700229FE710229DE710229BE7082AEC
:1008400079D8DFE802F008782A78277878780500E8
:100850004FF4004003E000F093FE00286DD0626882
:1008600002EB420383426AD8B0EB023F69D8010E23
:1008700000025308C0184FF0000341F10001FFF7D8
:10088000A7FCA0F540723B4B9A425CD82368D86025
:10089000002043E000F026FADFE73748DFE7082AC8
:1008A00053D8DFE802F007210552245252520B00C0
:1008B000314803E000F064FE002848D06268530825
:1008C00003EB4000B0FBF2F080B2A0F110024FF653
:1008D000EF739A423DD820F00F03C0F34200184353
:1008E0002368D860002019E000F05CFEE4E700F027
:1008F000F9F9E1E7204802E000F042FE68B36368DE
:1009000000EB5300B0FBF3F080B2A0F110024FF601
:10091000EF739A4223D82368D860002000236366CF
:10092000A36610BD00F03EFEE8E700F0DBF9E5E766
:100930004FF40040E3E70120F0E70020EEE701205C
:10094000ECE70120EAE70120E8E70120E6E70020E4
:10095000E4E70120E2E70120E0E70020DEE70120F4
:10096000DCE700BFF369FFEF008000400038014082
:1009700000440040FFFC0F000024F400436A13F021
:10098000010F06D00268536823F40033816A0B43D9
:100990005360436A13F0020F06D00268536823F4D1
:1009A0008033C16A0B435360436A13F0040F06D0CF
:1009B0000268536823F48023016B0B435360436A3E
:1009C00013F0080F06D00268536823F40043416B0C
:1009D0000B435360436A13F0100F06D0026893680C
:1009E00023F48053816B0B439360436A13F0200F11
:1009F00006D00268936823F40053C16B0B439360E5
:100A0000436A13F0400F0AD00268536823F480133E
:100A1000016C0B435360036CB3F5801F0BD0436A2A
:100A200013F0800F06D00268536823F40023816C12
:100A30000B43536070470268536823F4C003416C52
:100A40000B435360EBE72DE9F84305460F46164686
:100A50009946DDF820802C68E46937EA04030CBF6E
:100A60004FF0010C4FF0000CB4453DD1B8F1FF3F01
:100A7000F1D000F0E9F8A0EB0900404522D8B8F128
:100A8000000F1FD02B681A6812F0040FE3D0DA6948
:100A900012F4006FDFD04FF400621A622A68136804
:100AA00023F4D07313602A68936823F001039360E2
:100AB0002023AB67EB67C5F88030002385F87430DE
:100AC000032012E02A68136823F4D07313602A68A5
:100AD000936823F0010393602023AB67EB67002347
:100AE00085F87430032000E00020BDE8F88330B5BD
:100AF00083B004460023C0F8803000F0A5F8054616
:100B00002268126812F0080F0DD123681B6813F0D9
:100B1000040F16D12023A367E3670020206684F822
:100B2000740003B030BD6FF07E4300930346002293
:100B30004FF400112046FFF786FF0028E5D0032080
:100B4000EFE76FF07E4300932B4600224FF48001C5
:100B50002046FFF778FF0028DCD00320E1E768B3E8
:100B600010B50446836F03B32423A3672268136878
:100B700023F0010313602046FFF7D0FD012813D0B6
:100B8000636ABBB92268536823F4904353602268B8
:100B9000936823F02A0393602268136843F00103EB
:100BA00013602046FFF7A3FF10BD80F87430FFF7F5
:100BB00065FDD9E72046FFF7E1FEE3E70120704736
:100BC000104B1B780BB90120704710B504464FF449
:100BD0007A70B0FBF3F30C4A1068B0FBF3F001F04D
:100BE00095F868B90F2C01D901200AE000222146AE
:100BF0004FF0FF3001F052F8044B1C60002000E081
:100C0000012010BD0000002008000020040000208A
:100C100010B5032001F030F80020FFF7D1FF10B12C
:100C20000124204610BD0446FFF710FDF9E700003F
:100C3000034B1B78034A11680B441360704700BFD5
:100C400000000020B0000020014B1868704700BF72
:100C5000B000002030B583B00446204B9B6D13F0EC
:100C6000805F0BD000F0B8FFB0F5007F17D0802C6C
:100C70001FD82DD0702C2DD000211BE0174DAB6D4F
:100C800043F08053AB65AB6D03F080530193019B40
:100C900000F0A2FFAB6D23F08053AB65E4E7802C3E
:100CA00003D9A02C03D9022104E0002102E0012194
:100CB00000E003210A4A136823F007030B43136083
:100CC000136803F007038B4206D1002003B030BD48
:100CD0000221EFE70121EDE70120F7E700100240D4
:100CE00000200240284A9368D26802F0030213F001
:100CF0000C030AD00C2B06D0042B1FD0082B20D0BD
:100D00000020024610E0012AF6D11F4A126812F0B4
:100D1000080F0CD11C4AD2F89420C2F303221B49BD
:100D200051F8222043B100200C2B0DD07047164AF9
:100D30001268C2F30312F2E71046F5E714480022E6
:100D4000F2E714480022EFE70F4BDB6803F00303E0
:100D5000022B16D0032B00D10E4A0B49C868C0F3F2
:100D60000210431CC868C0F3062002FB00F0B0FB71
:100D7000F3F0CB68C3F3416301335B00B0FBF3F0E6
:100D8000D4E7034AE9E700BF00100240581E0008FC
:100D90000024F40000127A00002800F02783F0B548
:100DA00083B00446964B9D6805F00C05DE6806F09E
:100DB0000306036813F0100F5AD0E5B10C2D18D0BC
:100DC000A369002B00F0BB808D4A136843F0010338
:100DD0001360FFF739FF0746894B1B6813F0020FBA
:100DE00040F09A80FFF730FFC01B0228F4D903209F
:100DF00007E3012EE4D1824B1B6813F0020F03D0EE
:100E0000A369002B00F0F482206A7D4B1B6813F06D
:100E1000080F5BD07A4B1B6803F0F00398425CD854
:100E2000774B1A6842F008021A601A6822F0F00242
:100E3000216A0A431A605A6822F47F42E16942EA51
:100E400001225A60002D60D0FFF74CFF6C4B9B686D
:100E5000C3F303136B4AD35C03F01F03D8406A4B00
:100E600018606A4B1868FFF7ABFE002840F0C98293
:100E7000236813F0010F00F08180082D75D00C2D30
:100E800071D06368B3F5803F00F09780B3F5A02F71
:100E900000F099805A4B1A6822F480321A601A685E
:100EA00022F480221A606368002B00F09980FFF71B
:100EB000CBFE0746524B1B6813F4003F5ED1FFF791
:100EC000C3FEC01B6428F5D903209AE24C4BD3F82B
:100ED00094301B0903F0F003A0E7FFF7BBFE0028E6
:100EE00040F08882464B1A6842F008021A601A687D
:100EF00022F0F002216A0A431A605A6822F47F4203
:100F0000E16942EA01225A609EE7206AFFF7A2FEE9
:100F1000002899D0012074E2394B1A6842F0080287
:100F20001A601A6822F0F002216A0A431A605A68AD
:100F300022F47F42E16942EA01225A6098E7304A8E
:100F4000136823F001031360FFF77EFE07462C4B66
:100F50001B6813F0020F8BD0FFF776FEC01B022830
:100F6000F5D903204DE2032E8BD1254B1B6813F4DA
:100F7000003F03D06368002B00F03E82236813F02B
:100F8000020F58D0042D45D00C2D41D0E368002B22
:100F900077D01B4A136843F480731360FFF754FE45
:100FA0000646174B1B6813F4806F61D1FFF74CFEA8
:100FB000801B0228F5D9032023E2114A136843F469
:100FC000803313606FE703F18043A3F53C331A6865
:100FD00042F480221A601A6842F480321A6062E792
:100FE000FFF732FE0746064B1B6813F4003FC5D0DF
:100FF000FFF72AFEC01B6428F5D9032001E200BFD9
:1010000000100240401E00080800002004000020DC
:10101000022EBBD1AC4B1B6813F4806F03D0E36886
:10102000002B00F0EB81A84A536823F0F8532169A4
:1010300043EA01635360236813F0080F4CD06369DF
:101040009BB3A14AD2F8943043F00103C2F8943024
:10105000FFF7FAFD06469C4BD3F8943013F0020FCD
:101060003AD1FFF7F1FD801B0228F4D90320C8E133
:10107000954A536823F0F853216943EA01635360AA
:10108000D9E7914A136823F480731360FFF7DCFDFE
:1010900006468D4B1B6813F4806FCCD0FFF7D4FD50
:1010A000801B0228F5D90320ABE1874AD2F894309F
:1010B00023F00103C2F89430FFF7C6FD0646824BC9
:1010C000D3F8943013F0020F06D0FFF7BDFD801B5C
:1010D0000228F4D9032094E1236813F0040F7AD096
:1010E000794B9B6D13F0805F36D1774B9A6D42F050
:1010F00080529A659B6D03F080530193019B0126FA
:10110000724B1B6813F4807F28D0A368012B39D061
:10111000052B3FD06C4BD3F8902022F00102C3F88E
:101120009020D3F8902022F00402C3F89020A36806
:10113000002B3DD0FFF788FD0746634BD3F8903076
:1011400013F0020F46D1FFF77FFDC01B41F2883339
:101150009842F2D9032054E10026D1E75B4A136894
:1011600043F480731360FFF76FFD0746574B1B680E
:1011700013F4807FC9D1FFF767FDC01B0228F5D9A2
:1011800003203EE1504AD2F8903043F00103C2F808
:101190009030CCE74C4BD3F8902042F00402C3F8D7
:1011A0009020D3F8902042F00102C3F89020BEE7CF
:1011B000FFF74AFD0746444BD3F8903013F0020F77
:1011C00008D0FFF741FDC01B41F288339842F2D9A5
:1011D000032016E1E6B9236813F0200F35D0636AC7
:1011E000E3B1394AD2F8983043F00103C2F898309D
:1011F000FFF72AFD0646344BD3F8983013F0020F60
:1012000023D1FFF721FD801B0228F4D90320F8E049
:101210002D4A936D23F080539365DCE72A4AD2F878
:10122000983023F00103C2F89830FFF70DFD064611
:10123000254BD3F8983013F0020F06D0FFF704FDCA
:10124000801B0228F4D90320DBE0A36A002B00F006
:10125000D780022B27D00C2D00F0D7801A4B1A68AC
:1012600022F080721A601B6813F0006F04D1164AD6
:10127000D36823F00303D360134AD36823F0887341
:1012800023F48033D360FFF7DFFC04460E4B1B686A
:1012900013F0007F00F0A880FFF7D6FC001B0228A7
:1012A000F4D90320ADE0084BDB6803F00301E26AE8
:1012B00091420DD00C2D00F0A680034B1B6813F05B
:1012C000806F2FD001209CE0001002400070004091
:1012D00003F07002216B0139B2EB011FEAD103F474
:1012E000FE42616BB2EB012FE4D103F07842A16BB7
:1012F000B2EBC16FDED103F4C001E26B5208013AD8
:10130000B1EB425FD6D103F0C063226C5208013AC0
:10131000B3EB426FCED13E4B1B6813F0007F49D038
:1013200000206EE03A4A136823F080731360FFF7E1
:101330008BFC0546364B1B6813F0007F06D0FFF789
:1013400083FC401B0228F5D903205AE0304AD368B9
:1013500030491940E36A206B013843EA0013606B9F
:1013600043EA0023E06B4008013843EA4053206C15
:101370004008013843EA4063A06B43EAC0630B4373
:10138000D360136843F080731360D36843F08073B5
:10139000D360FFF759FC04461D4B1B6813F0007F18
:1013A00006D1FFF751FC001B0228F5D9032028E0E5
:1013B000002026E0164B1A6842F080721A60DA6844
:1013C00042F08072DA60FFF73FFC0446104B1B6866
:1013D00013F0007F06D1FFF737FC031B022BF5D972
:1013E00003200EE000200CE000200AE001207047FE
:1013F000012006E0012004E0012002E0012000E0DD
:10140000002003B0F0BD0120FBE70120F9E700BF99
:10141000001002408C809D01002800F0988070B57B
:101420000C4605464E4B1B6803F007038B420BD25C
:101430004B4A136823F007030B431360136803F050
:1014400007038B4240F085802B6813F0010F39D0E1
:101450006B68032B09D0022B26D063BB414A12686C
:1014600012F0020F06D1012070E03E4A126812F01D
:10147000007F70D03B498A6822F0030213438B60DF
:10148000FFF7E2FB0646374B9B6803F00C036A68E4
:10149000B3EB820F16D0FFF7D7FB801B41F28833E6
:1014A0009842F0D9032051E02E4A126812F4003F0E
:1014B000E0D101204AE02B4A126812F4806FD9D1A2
:1014C000012043E02B6813F0020F06D0254A9368F1
:1014D00023F0F003A9680B439360214B1B6803F0D2
:1014E0000703A3420AD91E4A136823F007032343C4
:1014F0001360136803F00703A3422ED12B6813F087
:10150000040F06D0174A936823F4E063E9680B439D
:1015100093602B6813F0080F07D0124A936823F4E6
:101520006053296943EAC1039360FFF7DBFB0D4B6E
:101530009B68C3F303130C4AD35C03F01F03D8402A
:101540000A4B18600A4B1868FFF73AFB70BD012080
:1015500070470120FAE70120F8E70120F6E700BF15
:101560000020024000100240401E00080800002039
:1015700004000020014B1868704700BF08000020DD
:1015800008B5FFF7F7FF054B9B68C3F30223044A36
:10159000D35C03F01F03D84008BD00BF0010024019
:1015A000501E000808B5FFF7E5FF054B9B68C3F325
:1015B000C223044AD35C03F01F03D84008BD00BF18
:1015C00000100240501E0008F8B504460F46584B64
:1015D000DB6813F0030F18D0554BDB6803F00303EF
:1015E0000268934202D001252846F8BD002A00F087
:1015F0009D804F4BDB68C3F3021301334268934273
:1016000001D00125F0E7002509E00368022B56D040
:10161000032B5BD0012B41D00125002DE4D1444A9E
:10162000136823F080631360FFF70EFB0646404B00
:101630001B6813F0006F05D0FFF706FB831B022B1E
:10164000F5D90325002DCFD1002F4DD138490B6995
:1016500023F0784323F4FE43A068E268D20642EA0E
:10166000002213430B61324A136843F08063136016
:10167000FFF7EAFA06462E4B1B6813F0006F05D100
:10168000FFF7E2FA831B022BF5D90325002DABD11E
:10169000274A1369A1690B431361A5E7244A12681D
:1016A00012F0020F1ED02248C26822F07302616855
:1016B000013943EA01131343C3600025ADE71C4A17
:1016C000126812F4806FEED10125A6E7184A12685D
:1016D00012F4003FE7D1164A126812F4802FE2D1CB
:1016E00001259AE7012598E7012F0FD010480269DC
:1016F00022F0C06222F4FE42A16863695B08013BEC
:101700005B0643EA012313430361ACE7084802691F
:1017100022F4C00222F4FE42A16823695B08013B67
:101720005B0543EA0123134303619CE701255BE763
:10173000001002402DE9F04182B00446036813F422
:10174000006F25D0C36BB3F5000F06D0B3F5400F83
:1017500012D04BB1012637461CE0AE4AD36843F4A1
:101760008033D360002708E000210430FFF72CFF0E
:10177000074610B106460DE00027A64AD2F8883089
:1017800023F44003E16B0B43C2F88830002601E0EC
:1017900000263746236813F4003F6BD09D4B9B6DAA
:1017A00013F0805F4CD19B4B9A6D42F080529A654A
:1017B0009B6D03F080530193019B4FF00108964A03
:1017C000136843F480731360FFF73EFA0546924BAB
:1017D0001B6813F4807F05D1FFF736FA401B0228FF
:1017E000F5D90327002F40D18A4BD3F8903013F45A
:1017F000407315D0226D9A4212D0864AD2F89030AA
:1018000023F44073D2F8901041F48031C2F8901064
:10181000D2F8901021F48031C2F89010C2F89030C4
:1018200013F0010F0FD1002F40F0C980794AD2F890
:10183000903023F44073216D0B43C2F8903015E0D3
:101840004FF00008BBE7FFF7FFF90546714BD3F8EF
:10185000903013F0020FE6D1FFF7F6F9401B41F28A
:1018600088339842F2D90327DDE73E46B8F1000FEE
:1018700040F0A780236813F0010F08D0654AD2F822
:10188000883023F00303216A0B43C2F888302368B1
:1018900013F0020F08D05F4AD2F8883023F00C030F
:1018A000616A0B43C2F88830236813F0200F08D018
:1018B000584AD2F8883023F44063A16A0B43C2F837
:1018C0008830236813F4007F08D0524AD2F8883059
:1018D00023F44023616B0B43C2F88830236813F470
:1018E000806F08D04B4AD2F8883023F44013A16BA4
:1018F0000B43C2F88830236813F0400F08D0454AE4
:10190000D2F8883023F44053E16A0B43C2F88830A0
:10191000236813F4807F08D03E4AD2F8883023F43D
:101920004033216B0B43C2F88830236813F4005F07
:101930000FD0384AD2F8883023F04063216C0B4333
:10194000C2F88830236CB3F1006F40D0B3F1806FE0
:1019500042D0236813F4802F0FD02E4AD2F888305B
:1019600023F04063616C0B43C2F88830636CB3F1C1
:10197000006F39D0B3F1806F3BD0236813F4804FF0
:101980000CD0244AD2F8883023F04053A16C0B438A
:10199000C2F88830A36CB3F1805F32D0236813F4AF
:1019A000004F08D01B4AD2F8883023F08043E16C06
:1019B0000B43C2F88830304602B0BDE8F0813E46A5
:1019C00054E7144A936D23F08053936552E7D3682C
:1019D00043F48013D360BCE70121201DFFF7F4FD21
:1019E0000028B6D00646B4E7D36843F48013D3602A
:1019F000C3E70121201DFFF7E7FD0028BDD0064603
:101A0000BBE70221201DFFF7DFFD0028C6D00646F8
:101A1000C4E700BF0010024000700040024A136893
:101A200043F004031360704700100240F0B583B028
:101A300000239CE085685E000324B44025EA040589
:101A4000CC68B4402C438460446824EA0C0C4C6895
:101A5000C4F300149C4044EA0C044460C6684FEA96
:101A6000430C032505FA0CF5EC4326EA050E8D68B8
:101A700005FA0CF545EA0E05C5604D68022D01D04A
:101A8000122D12D1DE08083650F8267003F0070533
:101A90004FEA850E0F2505FA0EF527EA05070D69B1
:101AA00005FA0EF53D4340F82650056825404C6880
:101AB00004F0030404FA0CF42C4304604C6814F0A2
:101AC000805F53D0394C256E45F001052566246EA4
:101AD00004F001040194019C9D08AE1C344C54F8A0
:101AE000267003F00304A6000F24B44027EA04077D
:101AF000B0F1904F54D02F4CA04253D004F58064E5
:101B0000A0424BD00724B4403C430235284E46F84F
:101B10002540294C2568D44325EA02064F6817F46E
:101B2000803F01D042EA0506234D2E606D6804EA2D
:101B300005064F6817F4003F01D042EA05061E4D26
:101B40006E60AD6804EA05064F6817F4801F01D087
:101B500042EA0506184DAE60ED682C404E6816F45A
:101B6000001F01D042EA0504134AD46001330A6819
:101B700032FA03F418D04FF0010C0CFA03FC1CEA03
:101B80000202F3D04C68651E012D7FF653AF112C75
:101B90003FF450AF122C7FF461AF4BE70224B2E761
:101BA0000024B0E70124AEE703B0F0BD001002400E
:101BB0000000014000040048000401400AB18161B6
:101BC0007047816270470000024A136843F48073D3
:101BD0001360704700700040024B186800F4C0604A
:101BE000704700BF00700040B0F5007F0FD01F4B62
:101BF0001B6803F4C063B3F5806F34D01B4A1368CD
:101C000023F4C06343F48063136000207047174BD4
:101C10001B6803F4C063B3F5007F20D0134A136838
:101C200023F4C06343F400731360114B1B6832222A
:101C300002FB03F30F4AA2FB03239B0C013300E0DA
:101C4000013B0A4A526912F4806F01D0002BF7D190
:101C5000064B5B6913F4806F03D1002070470020AE
:101C60007047032070470020704700BF007000409D
:101C70000800002083DE1B43074AD36823F4E06397
:101C80001B041B0C000200F4E060034343F0BF633D
:101C900043F40033D360704700ED00E000B5194B0A
:101CA000DB68C3F30223C3F1070CBCF1040F28BFA8
:101CB0004FF0040C03F1040EBEF1060F18D9033BDC
:101CC0004FF0FF3E0EFA0CFC21EA0C0199400EFA8F
:101CD00003F322EA0303194300280BDB0901C9B20D
:101CE00000F1604000F5614080F800135DF804FBEE
:101CF0000023E5E700F00F000901C9B2024B1954B7
:101D0000F4E700BF00ED00E014ED00E00138B0F1B1
:101D1000807F0BD24FF0E0235861054AF02182F812
:101D200023100020986107221A6170470120704734
:101D300000ED00E00E4AD2F8883043F47003C2F898
:101D400088300C4B1A6842F001021A600021996039
:101D50001A6822F0A85222F410221A604FF480521E
:101D6000DA601A6822F480221A609961704700BF15
:101D700000ED00E000100240DFF834D0FFF7DAFF9A
:101D8000002103E00B4B5B58435004310A480B4BD6
:101D900042189A42F6D30A4A02E0002342F8043B72
:101DA000084B9A42F9D300F011F8FEF739FCFEE730
:101DB00000C00020A01E000800000020100000202D
:101DC00010000020B4000020FEE7000070B50D4DAB
:101DD0000D4C641BA4100026A64209D10B4D0C4CDF
:101DE00000F020F8641BA4100026A64205D170BDA7
:101DF00055F8043B98470136EEE755F8043B984701
:101E00000136F2E7901E0008901E0008901E0008A0
:101E1000941E000802440346934200D1704703F821
:101E2000011BF9E7F8B500BFF8BC08BC9E46704737
:101E3000F8B500BFF8BC08BC9E4670470000000023
:101E4000000000000000000001020304060708096A
:101E50000000000001020304A0860100400D030001
:101E6000801A060000350C0040420F0080841E00DE
:101E700000093D0000127A000024F40000366E01D3
:081E80000048E801006CDC02DF
:081E880078E3FF7F0100000078
:081E9000B5010008000000008C
:081E98009101000800000000A8
:101EA000010000001000000000093D0000000000DB
:0400000508001D7959
:00000001FF
